:100000000C943E000C9448000C9448000C9448005A
:100010000C9448000C9448000C9448000C94480040
:100020000C9448000C9448000C9448000C94480030
:100030000C9448000C9448000C9448000C94480020
:100040000C9448000C9448000C9448000C94480010
:100050000C9448000C9448000C9448000C94480000
:100060000C9448000C9448000C9448000C944800F0
:100070000C9448000C9448000C94480011241FBEB6
:10008000CFEFD0E1DEBFCDBF0E946F000C94920095
:100090000C94000080E480937C0086E880937A00D2
:1000A0000895ECE7F0E09081907F8770892B808342
:1000B000EAE7F0E0808180648083808186FDFDCF67
:1000C000809178009091790008958AB180638AB90F
:1000D00081EA809380008AE08093810008958AB14C
:1000E0008C6C8AB90E944A000E94650008E810E002
:1000F000CAE8D0E05A9A5B985E9A5F9880E00E94C6
:10010000510096958795969587959927F801918343
:100110008083998388838FE19EE40197F1F700C083
:080120000000E8CFF894FFCFC6
:00000001FF
